{
  "_format": "hh-sol-artifact-1",
  "contractName": "DynamicSvgNft",
  "sourceName": "contracts/DynamicSvgNft.sol",
  "abi": [
    {
      "inputs": [
        {
          "internalType": "string",
          "name": "lowSvg",
          "type": "string"
        },
        {
          "internalType": "string",
          "name": "highSvg",
          "type": "string"
        },
        {
          "internalType": "address",
          "name": "priceFeedAddress",
          "type": "address"
        }
      ],
      "stateMutability": "nonpayable",
      "type": "constructor"
    },
    {
      "anonymous": false,
      "inputs": [
        {
          "indexed": true,
          "internalType": "address",
          "name": "owner",
          "type": "address"
        },
        {
          "indexed": true,
          "internalType": "address",
          "name": "approved",
          "type": "address"
        },
        {
          "indexed": true,
          "internalType": "uint256",
          "name": "tokenId",
          "type": "uint256"
        }
      ],
      "name": "Approval",
      "type": "event"
    },
    {
      "anonymous": false,
      "inputs": [
        {
          "indexed": true,
          "internalType": "address",
          "name": "owner",
          "type": "address"
        },
        {
          "indexed": true,
          "internalType": "address",
          "name": "operator",
          "type": "address"
        },
        {
          "indexed": false,
          "internalType": "bool",
          "name": "approved",
          "type": "bool"
        }
      ],
      "name": "ApprovalForAll",
      "type": "event"
    },
    {
      "anonymous": false,
      "inputs": [
        {
          "indexed": true,
          "internalType": "uint256",
          "name": "tokenId",
          "type": "uint256"
        },
        {
          "indexed": false,
          "internalType": "int256",
          "name": "highValue",
          "type": "int256"
        }
      ],
      "name": "CreatedNFT",
      "type": "event"
    },
    {
      "anonymous": false,
      "inputs": [
        {
          "indexed": true,
          "internalType": "address",
          "name": "from",
          "type": "address"
        },
        {
          "indexed": true,
          "internalType": "address",
          "name": "to",
          "type": "address"
        },
        {
          "indexed": true,
          "internalType": "uint256",
          "name": "tokenId",
          "type": "uint256"
        }
      ],
      "name": "Transfer",
      "type": "event"
    },
    {
      "inputs": [
        {
          "internalType": "address",
          "name": "to",
          "type": "address"
        },
        {
          "internalType": "uint256",
          "name": "tokenId",
          "type": "uint256"
        }
      ],
      "name": "approve",
      "outputs": [],
      "stateMutability": "nonpayable",
      "type": "function"
    },
    {
      "inputs": [
        {
          "internalType": "address",
          "name": "owner",
          "type": "address"
        }
      ],
      "name": "balanceOf",
      "outputs": [
        {
          "internalType": "uint256",
          "name": "",
          "type": "uint256"
        }
      ],
      "stateMutability": "view",
      "type": "function"
    },
    {
      "inputs": [
        {
          "internalType": "uint256",
          "name": "tokenId",
          "type": "uint256"
        }
      ],
      "name": "getApproved",
      "outputs": [
        {
          "internalType": "address",
          "name": "",
          "type": "address"
        }
      ],
      "stateMutability": "view",
      "type": "function"
    },
    {
      "inputs": [
        {
          "internalType": "address",
          "name": "owner",
          "type": "address"
        },
        {
          "internalType": "address",
          "name": "operator",
          "type": "address"
        }
      ],
      "name": "isApprovedForAll",
      "outputs": [
        {
          "internalType": "bool",
          "name": "",
          "type": "bool"
        }
      ],
      "stateMutability": "view",
      "type": "function"
    },
    {
      "inputs": [
        {
          "internalType": "int256",
          "name": "highValue",
          "type": "int256"
        }
      ],
      "name": "mintNft",
      "outputs": [],
      "stateMutability": "nonpayable",
      "type": "function"
    },
    {
      "inputs": [],
      "name": "name",
      "outputs": [
        {
          "internalType": "string",
          "name": "",
          "type": "string"
        }
      ],
      "stateMutability": "view",
      "type": "function"
    },
    {
      "inputs": [
        {
          "internalType": "uint256",
          "name": "tokenId",
          "type": "uint256"
        }
      ],
      "name": "ownerOf",
      "outputs": [
        {
          "internalType": "address",
          "name": "",
          "type": "address"
        }
      ],
      "stateMutability": "view",
      "type": "function"
    },
    {
      "inputs": [
        {
          "internalType": "uint256",
          "name": "",
          "type": "uint256"
        }
      ],
      "name": "s_tokenIdToHighValue",
      "outputs": [
        {
          "internalType": "int256",
          "name": "",
          "type": "int256"
        }
      ],
      "stateMutability": "view",
      "type": "function"
    },
    {
      "inputs": [
        {
          "internalType": "address",
          "name": "from",
          "type": "address"
        },
        {
          "internalType": "address",
          "name": "to",
          "type": "address"
        },
        {
          "internalType": "uint256",
          "name": "tokenId",
          "type": "uint256"
        }
      ],
      "name": "safeTransferFrom",
      "outputs": [],
      "stateMutability": "nonpayable",
      "type": "function"
    },
    {
      "inputs": [
        {
          "internalType": "address",
          "name": "from",
          "type": "address"
        },
        {
          "internalType": "address",
          "name": "to",
          "type": "address"
        },
        {
          "internalType": "uint256",
          "name": "tokenId",
          "type": "uint256"
        },
        {
          "internalType": "bytes",
          "name": "data",
          "type": "bytes"
        }
      ],
      "name": "safeTransferFrom",
      "outputs": [],
      "stateMutability": "nonpayable",
      "type": "function"
    },
    {
      "inputs": [
        {
          "internalType": "address",
          "name": "operator",
          "type": "address"
        },
        {
          "internalType": "bool",
          "name": "approved",
          "type": "bool"
        }
      ],
      "name": "setApprovalForAll",
      "outputs": [],
      "stateMutability": "nonpayable",
      "type": "function"
    },
    {
      "inputs": [
        {
          "internalType": "bytes4",
          "name": "interfaceId",
          "type": "bytes4"
        }
      ],
      "name": "supportsInterface",
      "outputs": [
        {
          "internalType": "bool",
          "name": "",
          "type": "bool"
        }
      ],
      "stateMutability": "view",
      "type": "function"
    },
    {
      "inputs": [
        {
          "internalType": "string",
          "name": "svg",
          "type": "string"
        }
      ],
      "name": "svgToImageURI",
      "outputs": [
        {
          "internalType": "string",
          "name": "",
          "type": "string"
        }
      ],
      "stateMutability": "pure",
      "type": "function"
    },
    {
      "inputs": [],
      "name": "symbol",
      "outputs": [
        {
          "internalType": "string",
          "name": "",
          "type": "string"
        }
      ],
      "stateMutability": "view",
      "type": "function"
    },
    {
      "inputs": [
        {
          "internalType": "uint256",
          "name": "tokenId",
          "type": "uint256"
        }
      ],
      "name": "tokenURI",
      "outputs": [
        {
          "internalType": "string",
          "name": "",
          "type": "string"
        }
      ],
      "stateMutability": "view",
      "type": "function"
    },
    {
      "inputs": [
        {
          "internalType": "address",
          "name": "from",
          "type": "address"
        },
        {
          "internalType": "address",
          "name": "to",
          "type": "address"
        },
        {
          "internalType": "uint256",
          "name": "tokenId",
          "type": "uint256"
        }
      ],
      "name": "transferFrom",
      "outputs": [],
      "stateMutability": "nonpayable",
      "type": "function"
    }
  ],
  "bytecode": "0x60a06040523480156200001157600080fd5b5060405162003942380380620039428339818101604052810190620000379190620004e2565b6040518060400160405280600f81526020017f44796e616d696320537667204e667400000000000000000000000000000000008152506040518060400160405280600381526020017f44534e00000000000000000000000000000000000000000000000000000000008152508160009080519060200190620000bb9291906200039d565b508060019080519060200190620000d49291906200039d565b5050506000600681905550620000f0836200017160201b60201c565b60079080519060200190620001079291906200039d565b5062000119826200017160201b60201c565b60089080519060200190620001309291906200039d565b508073ffffffffffffffffffffffffffffffffffffffff1660808173ffffffffffffffffffffffffffffffffffffffff1660601b815250505050506200093a565b60606000620001ac836040516020016200018c9190620005b3565b6040516020818303038152906040526200020f60201b62000d411760201c565b90506040518060400160405280601a81526020017f646174613a696d6167652f7376672b786d6c3b6261736536342c00000000000081525081604051602001620001f8929190620005cc565b604051602081830303815290604052915050919050565b6060600082511415620002345760405180602001604052806000815250905062000398565b600060405180606001604052806040815260200162003902604091399050600060036002855162000266919062000669565b620002729190620006c6565b6004620002809190620006fe565b9050600060208262000293919062000669565b67ffffffffffffffff811115620002af57620002ae620008cc565b5b6040519080825280601f01601f191660200182016040528015620002e25781602001600182028036833780820191505090505b509050818152600183018586518101602084015b8183101562000353576003830192508251603f8160121c168501518253600182019150603f81600c1c168501518253600182019150603f8160061c168501518253600182019150603f8116850151825360018201915050620002f6565b60038951066001811462000370576002811462000381576200038c565b613d3d60f01b60028303526200038c565b603d60f81b60018303525b50505050508093505050505b919050565b828054620003ab90620007d3565b90600052602060002090601f016020900481019282620003cf57600085556200041b565b82601f10620003ea57805160ff19168380011785556200041b565b828001600101855582156200041b579182015b828111156200041a578251825591602001919060010190620003fd565b5b5090506200042a91906200042e565b5090565b5b80821115620004495760008160009055506001016200042f565b5090565b6000620004646200045e846200061d565b620005f4565b90508281526020810184848401111562000483576200048262000900565b5b620004908482856200079d565b509392505050565b600081519050620004a98162000920565b92915050565b600082601f830112620004c757620004c6620008fb565b5b8151620004d98482602086016200044d565b91505092915050565b600080600060608486031215620004fe57620004fd6200090a565b5b600084015167ffffffffffffffff8111156200051f576200051e62000905565b5b6200052d86828701620004af565b935050602084015167ffffffffffffffff81111562000551576200055062000905565b5b6200055f86828701620004af565b9250506040620005728682870162000498565b9150509250925092565b6000620005898262000653565b6200059581856200065e565b9350620005a78185602086016200079d565b80840191505092915050565b6000620005c182846200057c565b915081905092915050565b6000620005da82856200057c565b9150620005e882846200057c565b91508190509392505050565b60006200060062000613565b90506200060e828262000809565b919050565b6000604051905090565b600067ffffffffffffffff8211156200063b576200063a620008cc565b5b62000646826200090f565b9050602081019050919050565b600081519050919050565b600081905092915050565b6000620006768262000793565b9150620006838362000793565b9250827fffffffffffffffffffffffffffffffffffffffffffffffffffffffffffffffff03821115620006bb57620006ba6200083f565b5b828201905092915050565b6000620006d38262000793565b9150620006e08362000793565b925082620006f357620006f26200086e565b5b828204905092915050565b60006200070b8262000793565b9150620007188362000793565b9250817fffffffffffffffffffffffffffffffffffffffffffffffffffffffffffffffff04831182151516156200075457620007536200083f565b5b828202905092915050565b60006200076c8262000773565b9050919050565b600073ffffffffffffffffffffffffffffffffffffffff82169050919050565b6000819050919050565b60005b83811015620007bd578082015181840152602081019050620007a0565b83811115620007cd576000848401525b50505050565b60006002820490506001821680620007ec57607f821691505b602082108114156200080357620008026200089d565b5b50919050565b62000814826200090f565b810181811067ffffffffffffffff82111715620008365762000835620008cc565b5b80604052505050565b7f4e487b7100000000000000000000000000000000000000000000000000000000600052601160045260246000fd5b7f4e487b7100000000000000000000000000000000000000000000000000000000600052601260045260246000fd5b7f4e487b7100000000000000000000000000000000000000000000000000000000600052602260045260246000fd5b7f4e487b7100000000000000000000000000000000000000000000000000000000600052604160045260246000fd5b600080fd5b600080fd5b600080fd5b600080fd5b6000601f19601f8301169050919050565b6200092b816200075f565b81146200093757600080fd5b50565b60805160601c612fa9620009596000396000610a5a0152612fa96000f3fe608060405234801561001057600080fd5b50600436106101005760003560e01c80636352211e11610097578063b88d4fde11610066578063b88d4fde146102bd578063c87b56dd146102d9578063e425aded14610309578063e985e9c51461033957610100565b80636352211e1461022357806370a082311461025357806395d89b4114610283578063a22cb465146102a157610100565b80631e930812116100d35780631e9308121461019f57806323b872dd146101bb57806330d871c6146101d757806342842e0e1461020757610100565b806301ffc9a71461010557806306fdde0314610135578063081812fc14610153578063095ea7b314610183575b600080fd5b61011f600480360381019061011a9190611f20565b610369565b60405161012c919061246b565b60405180910390f35b61013d61044b565b60405161014a91906124a1565b60405180910390f35b61016d60048036038101906101689190611ff0565b6104dd565b60405161017a9190612404565b60405180910390f35b61019d60048036038101906101989190611ee0565b610523565b005b6101b960048036038101906101b49190611f7a565b61063b565b005b6101d560048036038101906101d09190611dca565b6106b6565b005b6101f160048036038101906101ec9190611fa7565b610716565b6040516101fe91906124a1565b60405180910390f35b610221600480360381019061021c9190611dca565b6107a3565b005b61023d60048036038101906102389190611ff0565b6107c3565b60405161024a9190612404565b60405180910390f35b61026d60048036038101906102689190611d5d565b61084a565b60405161027a9190612643565b60405180910390f35b61028b610902565b60405161029891906124a1565b60405180910390f35b6102bb60048036038101906102b69190611ea0565b610994565b005b6102d760048036038101906102d29190611e1d565b6109aa565b005b6102f360048036038101906102ee9190611ff0565b610a0c565b60405161030091906124a1565b60405180910390f35b610323600480360381019061031e9190611ff0565b610c95565b6040516103309190612486565b60405180910390f35b610353600480360381019061034e9190611d8a565b610cad565b604051610360919061246b565b60405180910390f35b60007f80ac58cd000000000000000000000000000000000000000000000000000000007bffffffffffffffffffffffffffffffffffffffffffffffffffffffff1916827bffffffffffffffffffffffffffffffffffffffffffffffffffffffff1916148061043457507f5b5e139f000000000000000000000000000000000000000000000000000000007bffffffffffffffffffffffffffffffffffffffffffffffffffffffff1916827bffffffffffffffffffffffffffffffffffffffffffffffffffffffff1916145b80610444575061044382610eba565b5b9050919050565b60606000805461045a90612913565b80601f016020809104026020016040519081016040528092919081815260200182805461048690612913565b80156104d35780601f106104a8576101008083540402835291602001916104d3565b820191906000526020600020905b8154815290600101906020018083116104b657829003601f168201915b5050505050905090565b60006104e882610f24565b6004600083815260200190815260200160002060009054906101000a900473ffffffffffffffffffffffffffffffffffffffff169050919050565b600061052e826107c3565b90508073ffffffffffffffffffffffffffffffffffffffff168373ffffffffffffffffffffffffffffffffffffffff16141561059f576040517f08c379a0000000000000000000000000000000000000000000000000000000008152600401610596906125e3565b60405180910390fd5b8073ffffffffffffffffffffffffffffffffffffffff166105be610f6f565b73ffffffffffffffffffffffffffffffffffffffff1614806105ed57506105ec816105e7610f6f565b610cad565b5b61062c576040517f08c379a000000000000000000000000000000000000000000000000000000000815260040161062390612603565b60405180910390fd5b6106368383610f77565b505050565b806009600060065481526020019081526020016000208190555061066133600654611030565b6006547f882d3b5a729a8bb95cf6c0083c99b42ecd9637123d4425bd7b768877fd8af8b0826040516106939190612486565b60405180910390a2600660008154809291906106ae90612976565b919050555050565b6106c76106c1610f6f565b8261104e565b610706576040517f08c379a00000000000000000000000000000000000000000000000000000000081526004016106fd906124c3565b60405180910390fd5b6107118383836110e3565b505050565b606060006107428360405160200161072e9190612384565b604051602081830303815290604052610d41565b90506040518060400160405280601a81526020017f646174613a696d6167652f7376672b786d6c3b6261736536342c0000000000008152508160405160200161078c92919061239b565b604051602081830303815290604052915050919050565b6107be838383604051806020016040528060008152506109aa565b505050565b6000806107cf836113dd565b9050600073ffffffffffffffffffffffffffffffffffffffff168173ffffffffffffffffffffffffffffffffffffffff161415610841576040517f08c379a0000000000000000000000000000000000000000000000000000000008152600401610838906125c3565b60405180910390fd5b80915050919050565b60008073ffffffffffffffffffffffffffffffffffffffff168273ffffffffffffffffffffffffffffffffffffffff1614156108bb576040517f08c379a00000000000000000000000000000000000000000000000000000000081526004016108b290612583565b60405180910390fd5b600360008373ffffffffffffffffffffffffffffffffffffffff1673ffffffffffffffffffffffffffffffffffffffff168152602001908152602001600020549050919050565b60606001805461091190612913565b80601f016020809104026020016040519081016040528092919081815260200182805461093d90612913565b801561098a5780601f1061095f5761010080835404028352916020019161098a565b820191906000526020600020905b81548152906001019060200180831161096d57829003601f168201915b5050505050905090565b6109a661099f610f6f565b838361141a565b5050565b6109bb6109b5610f6f565b8361104e565b6109fa576040517f08c379a00000000000000000000000000000000000000000000000000000000081526004016109f1906124c3565b60405180910390fd5b610a0684848484611587565b50505050565b6060610a17826115e3565b610a56576040517f08c379a0000000000000000000000000000000000000000000000000000000008152600401610a4d90612623565b60405180910390fd5b60007f000000000000000000000000000000000000000000000000000000000000000073ffffffffffffffffffffffffffffffffffffffff1663feaf968c6040518163ffffffff1660e01b815260040160a06040518083038186803b158015610abe57600080fd5b505afa158015610ad2573d6000803e3d6000fd5b505050506040513d601f19601f82011682018060405250810190610af6919061201d565b505050915050600060078054610b0b90612913565b80601f0160208091040260200160405190810160405280929190818152602001828054610b3790612913565b8015610b845780601f10610b5957610100808354040283529160200191610b84565b820191906000526020600020905b815481529060010190602001808311610b6757829003601f168201915b5050505050905060096000858152602001908152602001600020548212610c335760088054610bb290612913565b80601f0160208091040260200160405190810160405280929190818152602001828054610bde90612913565b8015610c2b5780601f10610c0057610100808354040283529160200191610c2b565b820191906000526020600020905b815481529060010190602001808311610c0e57829003601f168201915b505050505090505b610c3b611624565b610c6c610c4661044b565b83604051602001610c589291906123bf565b604051602081830303815290604052610d41565b604051602001610c7d92919061239b565b60405160208183030381529060405292505050919050565b60096020528060005260406000206000915090505481565b6000600560008473ffffffffffffffffffffffffffffffffffffffff1673ffffffffffffffffffffffffffffffffffffffff16815260200190815260200160002060008373ffffffffffffffffffffffffffffffffffffffff1673ffffffffffffffffffffffffffffffffffffffff16815260200190815260200160002060009054906101000a900460ff16905092915050565b6060600082511415610d6457604051806020016040528060008152509050610eb5565b6000604051806060016040528060408152602001612f346040913990506000600360028551610d939190612728565b610d9d919061277e565b6004610da991906127af565b90506000602082610dba9190612728565b67ffffffffffffffff811115610dd357610dd2612a4c565b5b6040519080825280601f01601f191660200182016040528015610e055781602001600182028036833780820191505090505b509050818152600183018586518101602084015b81831015610e74576003830192508251603f8160121c168501518253600182019150603f81600c1c168501518253600182019150603f8160061c168501518253600182019150603f8116850151825360018201915050610e19565b600389510660018114610e8e5760028114610e9e57610ea9565b613d3d60f01b6002830352610ea9565b603d60f81b60018303525b50505050508093505050505b919050565b60007f01ffc9a7000000000000000000000000000000000000000000000000000000007bffffffffffffffffffffffffffffffffffffffffffffffffffffffff1916827bffffffffffffffffffffffffffffffffffffffffffffffffffffffff1916149050919050565b610f2d816115e3565b610f6c576040517f08c379a0000000000000000000000000000000000000000000000000000000008152600401610f63906125c3565b60405180910390fd5b50565b600033905090565b816004600083815260200190815260200160002060006101000a81548173ffffffffffffffffffffffffffffffffffffffff021916908373ffffffffffffffffffffffffffffffffffffffff160217905550808273ffffffffffffffffffffffffffffffffffffffff16610fea836107c3565b73ffffffffffffffffffffffffffffffffffffffff167f8c5be1e5ebec7d5bd14f71427d1e84f3dd0314c0f7b2291e5b200ac8c7c3b92560405160405180910390a45050565b61104a828260405180602001604052806000815250611661565b5050565b60008061105a836107c3565b90508073ffffffffffffffffffffffffffffffffffffffff168473ffffffffffffffffffffffffffffffffffffffff16148061109c575061109b8185610cad565b5b806110da57508373ffffffffffffffffffffffffffffffffffffffff166110c2846104dd565b73ffffffffffffffffffffffffffffffffffffffff16145b91505092915050565b8273ffffffffffffffffffffffffffffffffffffffff16611103826107c3565b73ffffffffffffffffffffffffffffffffffffffff1614611159576040517f08c379a000000000000000000000000000000000000000000000000000000000815260040161115090612503565b60405180910390fd5b600073ffffffffffffffffffffffffffffffffffffffff168273ffffffffffffffffffffffffffffffffffffffff1614156111c9576040517f08c379a00000000000000000000000000000000000000000000000000000000081526004016111c090612543565b60405180910390fd5b6111d683838360016116bc565b8273ffffffffffffffffffffffffffffffffffffffff166111f6826107c3565b73ffffffffffffffffffffffffffffffffffffffff161461124c576040517f08c379a000000000000000000000000000000000000000000000000000000000815260040161124390612503565b60405180910390fd5b6004600082815260200190815260200160002060006101000a81549073ffffffffffffffffffffffffffffffffffffffff02191690556001600360008573ffffffffffffffffffffffffffffffffffffffff1673ffffffffffffffffffffffffffffffffffffffff168152602001908152602001600020600082825403925050819055506001600360008473ffffffffffffffffffffffffffffffffffffffff1673ffffffffffffffffffffffffffffffffffffffff16815260200190815260200160002060008282540192505081905550816002600083815260200190815260200160002060006101000a81548173ffffffffffffffffffffffffffffffffffffffff021916908373ffffffffffffffffffffffffffffffffffffffff160217905550808273ffffffffffffffffffffffffffffffffffffffff168473ffffffffffffffffffffffffffffffffffffffff167fddf252ad1be2c89b69c2b068fc378daa952ba7f163c4a11628f55a4df523b3ef60405160405180910390a46113d883838360016117e2565b505050565b60006002600083815260200190815260200160002060009054906101000a900473ffffffffffffffffffffffffffffffffffffffff169050919050565b8173ffffffffffffffffffffffffffffffffffffffff168373ffffffffffffffffffffffffffffffffffffffff161415611489576040517f08c379a000000000000000000000000000000000000000000000000000000000815260040161148090612563565b60405180910390fd5b80600560008573ffffffffffffffffffffffffffffffffffffffff1673ffffffffffffffffffffffffffffffffffffffff16815260200190815260200160002060008473ffffffffffffffffffffffffffffffffffffffff1673ffffffffffffffffffffffffffffffffffffffff16815260200190815260200160002060006101000a81548160ff0219169083151502179055508173ffffffffffffffffffffffffffffffffffffffff168373ffffffffffffffffffffffffffffffffffffffff167f17307eab39ab6107e8899845ad3d59bd9653f200f220920489ca2b5937696c318360405161157a919061246b565b60405180910390a3505050565b6115928484846110e3565b61159e848484846117e8565b6115dd576040517f08c379a00000000000000000000000000000000000000000000000000000000081526004016115d4906124e3565b60405180910390fd5b50505050565b60008073ffffffffffffffffffffffffffffffffffffffff16611605836113dd565b73ffffffffffffffffffffffffffffffffffffffff1614159050919050565b60606040518060400160405280601d81526020017f646174613a6170706c69636174696f6e2f6a736f6e3b6261736536342c000000815250905090565b61166b838361197f565b61167860008484846117e8565b6116b7576040517f08c379a00000000000000000000000000000000000000000000000000000000081526004016116ae906124e3565b60405180910390fd5b505050565b60018111156117dc57600073ffffffffffffffffffffffffffffffffffffffff168473ffffffffffffffffffffffffffffffffffffffff16146117505780600360008673ffffffffffffffffffffffffffffffffffffffff1673ffffffffffffffffffffffffffffffffffffffff16815260200190815260200160002060008282546117489190612809565b925050819055505b600073ffffffffffffffffffffffffffffffffffffffff168373ffffffffffffffffffffffffffffffffffffffff16146117db5780600360008573ffffffffffffffffffffffffffffffffffffffff1673ffffffffffffffffffffffffffffffffffffffff16815260200190815260200160002060008282546117d39190612728565b925050819055505b5b50505050565b50505050565b60006118098473ffffffffffffffffffffffffffffffffffffffff16611b9d565b15611972578373ffffffffffffffffffffffffffffffffffffffff1663150b7a02611832610f6f565b8786866040518563ffffffff1660e01b8152600401611854949392919061241f565b602060405180830381600087803b15801561186e57600080fd5b505af192505050801561189f57506040513d601f19601f8201168201806040525081019061189c9190611f4d565b60015b611922573d80600081146118cf576040519150601f19603f3d011682016040523d82523d6000602084013e6118d4565b606091505b5060008151141561191a576040517f08c379a0000000000000000000000000000000000000000000000000000000008152600401611911906124e3565b60405180910390fd5b805181602001fd5b63150b7a0260e01b7bffffffffffffffffffffffffffffffffffffffffffffffffffffffff1916817bffffffffffffffffffffffffffffffffffffffffffffffffffffffff191614915050611977565b600190505b949350505050565b600073ffffffffffffffffffffffffffffffffffffffff168273ffffffffffffffffffffffffffffffffffffffff1614156119ef576040517f08c379a00000000000000000000000000000000000000000000000000000000081526004016119e6906125a3565b60405180910390fd5b6119f8816115e3565b15611a38576040517f08c379a0000000000000000000000000000000000000000000000000000000008152600401611a2f90612523565b60405180910390fd5b611a466000838360016116bc565b611a4f816115e3565b15611a8f576040517f08c379a0000000000000000000000000000000000000000000000000000000008152600401611a8690612523565b60405180910390fd5b6001600360008473ffffffffffffffffffffffffffffffffffffffff1673ffffffffffffffffffffffffffffffffffffffff16815260200190815260200160002060008282540192505081905550816002600083815260200190815260200160002060006101000a81548173ffffffffffffffffffffffffffffffffffffffff021916908373ffffffffffffffffffffffffffffffffffffffff160217905550808273ffffffffffffffffffffffffffffffffffffffff16600073ffffffffffffffffffffffffffffffffffffffff167fddf252ad1be2c89b69c2b068fc378daa952ba7f163c4a11628f55a4df523b3ef60405160405180910390a4611b996000838360016117e2565b5050565b6000808273ffffffffffffffffffffffffffffffffffffffff163b119050919050565b6000611bd3611bce84612683565b61265e565b905082815260208101848484011115611bef57611bee612a80565b5b611bfa8482856128d1565b509392505050565b6000611c15611c10846126b4565b61265e565b905082815260208101848484011115611c3157611c30612a80565b5b611c3c8482856128d1565b509392505050565b600081359050611c5381612ea9565b92915050565b600081359050611c6881612ec0565b92915050565b600081359050611c7d81612ed7565b92915050565b600081519050611c9281612ed7565b92915050565b600082601f830112611cad57611cac612a7b565b5b8135611cbd848260208601611bc0565b91505092915050565b600081359050611cd581612eee565b92915050565b600081519050611cea81612eee565b92915050565b600082601f830112611d0557611d04612a7b565b5b8135611d15848260208601611c02565b91505092915050565b600081359050611d2d81612f05565b92915050565b600081519050611d4281612f05565b92915050565b600081519050611d5781612f1c565b92915050565b600060208284031215611d7357611d72612a8a565b5b6000611d8184828501611c44565b91505092915050565b60008060408385031215611da157611da0612a8a565b5b6000611daf85828601611c44565b9250506020611dc085828601611c44565b9150509250929050565b600080600060608486031215611de357611de2612a8a565b5b6000611df186828701611c44565b9350506020611e0286828701611c44565b9250506040611e1386828701611d1e565b9150509250925092565b60008060008060808587031215611e3757611e36612a8a565b5b6000611e4587828801611c44565b9450506020611e5687828801611c44565b9350506040611e6787828801611d1e565b925050606085013567ffffffffffffffff811115611e8857611e87612a85565b5b611e9487828801611c98565b91505092959194509250565b60008060408385031215611eb757611eb6612a8a565b5b6000611ec585828601611c44565b9250506020611ed685828601611c59565b9150509250929050565b60008060408385031215611ef757611ef6612a8a565b5b6000611f0585828601611c44565b9250506020611f1685828601611d1e565b9150509250929050565b600060208284031215611f3657611f35612a8a565b5b6000611f4484828501611c6e565b91505092915050565b600060208284031215611f6357611f62612a8a565b5b6000611f7184828501611c83565b91505092915050565b600060208284031215611f9057611f8f612a8a565b5b6000611f9e84828501611cc6565b91505092915050565b600060208284031215611fbd57611fbc612a8a565b5b600082013567ffffffffffffffff811115611fdb57611fda612a85565b5b611fe784828501611cf0565b91505092915050565b60006020828403121561200657612005612a8a565b5b600061201484828501611d1e565b91505092915050565b600080600080600060a0868803121561203957612038612a8a565b5b600061204788828901611d48565b955050602061205888828901611cdb565b945050604061206988828901611d33565b935050606061207a88828901611d33565b925050608061208b88828901611d48565b9150509295509295909350565b6120a18161283d565b82525050565b6120b08161284f565b82525050565b60006120c1826126e5565b6120cb81856126fb565b93506120db8185602086016128e0565b6120e481612a8f565b840191505092915050565b6120f881612887565b82525050565b6000612109826126f0565b612113818561270c565b93506121238185602086016128e0565b61212c81612a8f565b840191505092915050565b6000612142826126f0565b61214c818561271d565b935061215c8185602086016128e0565b80840191505092915050565b6000612175602d8361270c565b915061218082612aa0565b604082019050919050565b600061219860098361271d565b91506121a382612aef565b600982019050919050565b60006121bb60328361270c565b91506121c682612b18565b604082019050919050565b60006121de60258361270c565b91506121e982612b67565b604082019050919050565b6000612201601c8361270c565b915061220c82612bb6565b602082019050919050565b600061222460248361270c565b915061222f82612bdf565b604082019050919050565b600061224760198361270c565b915061225282612c2e565b602082019050919050565b600061226a60298361270c565b915061227582612c57565b604082019050919050565b600061228d60028361271d565b915061229882612ca6565b600282019050919050565b60006122b060208361270c565b91506122bb82612ccf565b602082019050919050565b60006122d360188361270c565b91506122de82612cf8565b602082019050919050565b60006122f660218361270c565b915061230182612d21565b604082019050919050565b6000612319603d8361270c565b915061232482612d70565b604082019050919050565b600061233c60868361271d565b915061234782612dbf565b608682019050919050565b600061235f601f8361270c565b915061236a82612e80565b602082019050919050565b61237e816128b1565b82525050565b60006123908284612137565b915081905092915050565b60006123a78285612137565b91506123b38284612137565b91508190509392505050565b60006123ca8261218b565b91506123d68285612137565b91506123e18261232f565b91506123ed8284612137565b91506123f882612280565b91508190509392505050565b60006020820190506124196000830184612098565b92915050565b60006080820190506124346000830187612098565b6124416020830186612098565b61244e6040830185612375565b818103606083015261246081846120b6565b905095945050505050565b600060208201905061248060008301846120a7565b92915050565b600060208201905061249b60008301846120ef565b92915050565b600060208201905081810360008301526124bb81846120fe565b905092915050565b600060208201905081810360008301526124dc81612168565b9050919050565b600060208201905081810360008301526124fc816121ae565b9050919050565b6000602082019050818103600083015261251c816121d1565b9050919050565b6000602082019050818103600083015261253c816121f4565b9050919050565b6000602082019050818103600083015261255c81612217565b9050919050565b6000602082019050818103600083015261257c8161223a565b9050919050565b6000602082019050818103600083015261259c8161225d565b9050919050565b600060208201905081810360008301526125bc816122a3565b9050919050565b600060208201905081810360008301526125dc816122c6565b9050919050565b600060208201905081810360008301526125fc816122e9565b9050919050565b6000602082019050818103600083015261261c8161230c565b9050919050565b6000602082019050818103600083015261263c81612352565b9050919050565b60006020820190506126586000830184612375565b92915050565b6000612668612679565b90506126748282612945565b919050565b6000604051905090565b600067ffffffffffffffff82111561269e5761269d612a4c565b5b6126a782612a8f565b9050602081019050919050565b600067ffffffffffffffff8211156126cf576126ce612a4c565b5b6126d882612a8f565b9050602081019050919050565b600081519050919050565b600081519050919050565b600082825260208201905092915050565b600082825260208201905092915050565b600081905092915050565b6000612733826128b1565b915061273e836128b1565b9250827fffffffffffffffffffffffffffffffffffffffffffffffffffffffffffffffff03821115612773576127726129bf565b5b828201905092915050565b6000612789826128b1565b9150612794836128b1565b9250826127a4576127a36129ee565b5b828204905092915050565b60006127ba826128b1565b91506127c5836128b1565b9250817fffffffffffffffffffffffffffffffffffffffffffffffffffffffffffffffff04831182151516156127fe576127fd6129bf565b5b828202905092915050565b6000612814826128b1565b915061281f836128b1565b925082821015612832576128316129bf565b5b828203905092915050565b600061284882612891565b9050919050565b60008115159050919050565b60007fffffffff0000000000000000000000000000000000000000000000000000000082169050919050565b6000819050919050565b600073ffffffffffffffffffffffffffffffffffffffff82169050919050565b6000819050919050565b600069ffffffffffffffffffff82169050919050565b82818337600083830152505050565b60005b838110156128fe5780820151818401526020810190506128e3565b8381111561290d576000848401525b50505050565b6000600282049050600182168061292b57607f821691505b6020821081141561293f5761293e612a1d565b5b50919050565b61294e82612a8f565b810181811067ffffffffffffffff8211171561296d5761296c612a4c565b5b80604052505050565b6000612981826128b1565b91507fffffffffffffffffffffffffffffffffffffffffffffffffffffffffffffffff8214156129b4576129b36129bf565b5b600182019050919050565b7f4e487b7100000000000000000000000000000000000000000000000000000000600052601160045260246000fd5b7f4e487b7100000000000000000000000000000000000000000000000000000000600052601260045260246000fd5b7f4e487b7100000000000000000000000000000000000000000000000000000000600052602260045260246000fd5b7f4e487b7100000000000000000000000000000000000000000000000000000000600052604160045260246000fd5b600080fd5b600080fd5b600080fd5b600080fd5b6000601f19601f8301169050919050565b7f4552433732313a2063616c6c6572206973206e6f7420746f6b656e206f776e6560008201527f72206f7220617070726f76656400000000000000000000000000000000000000602082015250565b7f7b226e616d65223a220000000000000000000000000000000000000000000000600082015250565b7f4552433732313a207472616e7366657220746f206e6f6e20455243373231526560008201527f63656976657220696d706c656d656e7465720000000000000000000000000000602082015250565b7f4552433732313a207472616e736665722066726f6d20696e636f72726563742060008201527f6f776e6572000000000000000000000000000000000000000000000000000000602082015250565b7f4552433732313a20746f6b656e20616c7265616479206d696e74656400000000600082015250565b7f4552433732313a207472616e7366657220746f20746865207a65726f2061646460008201527f7265737300000000000000000000000000000000000000000000000000000000602082015250565b7f4552433732313a20617070726f766520746f2063616c6c657200000000000000600082015250565b7f4552433732313a2061646472657373207a65726f206973206e6f74206120766160008201527f6c6964206f776e65720000000000000000000000000000000000000000000000602082015250565b7f227d000000000000000000000000000000000000000000000000000000000000600082015250565b7f4552433732313a206d696e7420746f20746865207a65726f2061646472657373600082015250565b7f4552433732313a20696e76616c696420746f6b656e2049440000000000000000600082015250565b7f4552433732313a20617070726f76616c20746f2063757272656e74206f776e6560008201527f7200000000000000000000000000000000000000000000000000000000000000602082015250565b7f4552433732313a20617070726f76652063616c6c6572206973206e6f7420746f60008201527f6b656e206f776e6572206f7220617070726f76656420666f7220616c6c000000602082015250565b7f222c20226465736372697074696f6e223a2022416e204e46542074686174206360008201527f68616e676573206261736564206f6e2074686520436861696e6c696b2046656560208201527f64222c202261747472696275746573223a205b7b2274726169745f747970652260408201527f3a2022636f6f6c6e657373222c202276616c7565223a203130307d5d2c22696d60608201527f616765223a220000000000000000000000000000000000000000000000000000608082015250565b7f55524920517565727920666f72206e6f6e6578697374656e7420746f6b656e00600082015250565b612eb28161283d565b8114612ebd57600080fd5b50565b612ec98161284f565b8114612ed457600080fd5b50565b612ee08161285b565b8114612eeb57600080fd5b50565b612ef781612887565b8114612f0257600080fd5b50565b612f0e816128b1565b8114612f1957600080fd5b50565b612f25816128bb565b8114612f3057600080fd5b5056fe4142434445464748494a4b4c4d4e4f505152535455565758595a6162636465666768696a6b6c6d6e6f707172737475767778797a303132333435363738392b2fa26469706673582212200cdab12bbd33c9a391bb518833f3ac139411b06fa9cf85003d02868295c3a53264736f6c634300080700334142434445464748494a4b4c4d4e4f505152535455565758595a6162636465666768696a6b6c6d6e6f707172737475767778797a303132333435363738392b2f",
  "linkReferences": {},
  "deployedLinkReferences": {}
}