{
  "_format": "hh-sol-artifact-1",
  "contractName": "RandomIpfsNft",
  "sourceName": "contracts/RandomIpfsNft.sol",
  "abi": [
    {
      "inputs": [
        {
          "internalType": "address",
          "name": "vrfCoordinatorV2",
          "type": "address"
        },
        {
          "internalType": "uint64",
          "name": "subscriptionId",
          "type": "uint64"
        },
        {
          "internalType": "bytes32",
          "name": "gasLane",
          "type": "bytes32"
        },
        {
          "internalType": "uint32",
          "name": "callbackGasLimit",
          "type": "uint32"
        },
        {
          "internalType": "string[3]",
          "name": "dogTokenUris",
          "type": "string[3]"
        },
        {
          "internalType": "uint256",
          "name": "mintFee",
          "type": "uint256"
        }
      ],
      "stateMutability": "nonpayable",
      "type": "constructor"
    },
    {
      "inputs": [
        {
          "internalType": "address",
          "name": "have",
          "type": "address"
        },
        {
          "internalType": "address",
          "name": "want",
          "type": "address"
        }
      ],
      "name": "OnlyCoordinatorCanFulfill",
      "type": "error"
    },
    {
      "inputs": [],
      "name": "RandomIpfsNft__NeedMoreETHSent",
      "type": "error"
    },
    {
      "inputs": [],
      "name": "RandomIpfsNft__RangeOutOfBounds",
      "type": "error"
    },
    {
      "inputs": [],
      "name": "RandomIpfsNft__TranferFailed",
      "type": "error"
    },
    {
      "anonymous": false,
      "inputs": [
        {
          "indexed": true,
          "internalType": "address",
          "name": "owner",
          "type": "address"
        },
        {
          "indexed": true,
          "internalType": "address",
          "name": "approved",
          "type": "address"
        },
        {
          "indexed": true,
          "internalType": "uint256",
          "name": "tokenId",
          "type": "uint256"
        }
      ],
      "name": "Approval",
      "type": "event"
    },
    {
      "anonymous": false,
      "inputs": [
        {
          "indexed": true,
          "internalType": "address",
          "name": "owner",
          "type": "address"
        },
        {
          "indexed": true,
          "internalType": "address",
          "name": "operator",
          "type": "address"
        },
        {
          "indexed": false,
          "internalType": "bool",
          "name": "approved",
          "type": "bool"
        }
      ],
      "name": "ApprovalForAll",
      "type": "event"
    },
    {
      "anonymous": false,
      "inputs": [
        {
          "indexed": false,
          "internalType": "enum RandomIpfsNft.Breed",
          "name": "dogBreed",
          "type": "uint8"
        },
        {
          "indexed": false,
          "internalType": "address",
          "name": "minter",
          "type": "address"
        }
      ],
      "name": "NftMinted",
      "type": "event"
    },
    {
      "anonymous": false,
      "inputs": [
        {
          "indexed": true,
          "internalType": "uint256",
          "name": "requestId",
          "type": "uint256"
        },
        {
          "indexed": false,
          "internalType": "address",
          "name": "requester",
          "type": "address"
        }
      ],
      "name": "NftRequested",
      "type": "event"
    },
    {
      "anonymous": false,
      "inputs": [
        {
          "indexed": true,
          "internalType": "address",
          "name": "previousOwner",
          "type": "address"
        },
        {
          "indexed": true,
          "internalType": "address",
          "name": "newOwner",
          "type": "address"
        }
      ],
      "name": "OwnershipTransferred",
      "type": "event"
    },
    {
      "anonymous": false,
      "inputs": [
        {
          "indexed": true,
          "internalType": "address",
          "name": "from",
          "type": "address"
        },
        {
          "indexed": true,
          "internalType": "address",
          "name": "to",
          "type": "address"
        },
        {
          "indexed": true,
          "internalType": "uint256",
          "name": "tokenId",
          "type": "uint256"
        }
      ],
      "name": "Transfer",
      "type": "event"
    },
    {
      "inputs": [
        {
          "internalType": "address",
          "name": "to",
          "type": "address"
        },
        {
          "internalType": "uint256",
          "name": "tokenId",
          "type": "uint256"
        }
      ],
      "name": "approve",
      "outputs": [],
      "stateMutability": "nonpayable",
      "type": "function"
    },
    {
      "inputs": [
        {
          "internalType": "address",
          "name": "owner",
          "type": "address"
        }
      ],
      "name": "balanceOf",
      "outputs": [
        {
          "internalType": "uint256",
          "name": "",
          "type": "uint256"
        }
      ],
      "stateMutability": "view",
      "type": "function"
    },
    {
      "inputs": [
        {
          "internalType": "uint256",
          "name": "tokenId",
          "type": "uint256"
        }
      ],
      "name": "getApproved",
      "outputs": [
        {
          "internalType": "address",
          "name": "",
          "type": "address"
        }
      ],
      "stateMutability": "view",
      "type": "function"
    },
    {
      "inputs": [
        {
          "internalType": "uint256",
          "name": "moddedRng",
          "type": "uint256"
        }
      ],
      "name": "getBreedFromModdedRng",
      "outputs": [
        {
          "internalType": "enum RandomIpfsNft.Breed",
          "name": "",
          "type": "uint8"
        }
      ],
      "stateMutability": "pure",
      "type": "function"
    },
    {
      "inputs": [],
      "name": "getCallbackGasLimit",
      "outputs": [
        {
          "internalType": "uint32",
          "name": "",
          "type": "uint32"
        }
      ],
      "stateMutability": "view",
      "type": "function"
    },
    {
      "inputs": [],
      "name": "getChanceArray",
      "outputs": [
        {
          "internalType": "uint256[3]",
          "name": "",
          "type": "uint256[3]"
        }
      ],
      "stateMutability": "pure",
      "type": "function"
    },
    {
      "inputs": [
        {
          "internalType": "uint256",
          "name": "index",
          "type": "uint256"
        }
      ],
      "name": "getDogTokenUris",
      "outputs": [
        {
          "internalType": "string",
          "name": "",
          "type": "string"
        }
      ],
      "stateMutability": "view",
      "type": "function"
    },
    {
      "inputs": [],
      "name": "getGasLane",
      "outputs": [
        {
          "internalType": "bytes32",
          "name": "",
          "type": "bytes32"
        }
      ],
      "stateMutability": "view",
      "type": "function"
    },
    {
      "inputs": [],
      "name": "getMintFee",
      "outputs": [
        {
          "internalType": "uint256",
          "name": "",
          "type": "uint256"
        }
      ],
      "stateMutability": "view",
      "type": "function"
    },
    {
      "inputs": [
        {
          "internalType": "uint256",
          "name": "requestId",
          "type": "uint256"
        }
      ],
      "name": "getSenderFromRequestId",
      "outputs": [
        {
          "internalType": "address",
          "name": "",
          "type": "address"
        }
      ],
      "stateMutability": "view",
      "type": "function"
    },
    {
      "inputs": [],
      "name": "getSubscriptionId",
      "outputs": [
        {
          "internalType": "uint256",
          "name": "",
          "type": "uint256"
        }
      ],
      "stateMutability": "view",
      "type": "function"
    },
    {
      "inputs": [],
      "name": "getTokenCounter",
      "outputs": [
        {
          "internalType": "uint256",
          "name": "",
          "type": "uint256"
        }
      ],
      "stateMutability": "view",
      "type": "function"
    },
    {
      "inputs": [
        {
          "internalType": "address",
          "name": "owner",
          "type": "address"
        },
        {
          "internalType": "address",
          "name": "operator",
          "type": "address"
        }
      ],
      "name": "isApprovedForAll",
      "outputs": [
        {
          "internalType": "bool",
          "name": "",
          "type": "bool"
        }
      ],
      "stateMutability": "view",
      "type": "function"
    },
    {
      "inputs": [],
      "name": "name",
      "outputs": [
        {
          "internalType": "string",
          "name": "",
          "type": "string"
        }
      ],
      "stateMutability": "view",
      "type": "function"
    },
    {
      "inputs": [],
      "name": "owner",
      "outputs": [
        {
          "internalType": "address",
          "name": "",
          "type": "address"
        }
      ],
      "stateMutability": "view",
      "type": "function"
    },
    {
      "inputs": [
        {
          "internalType": "uint256",
          "name": "tokenId",
          "type": "uint256"
        }
      ],
      "name": "ownerOf",
      "outputs": [
        {
          "internalType": "address",
          "name": "",
          "type": "address"
        }
      ],
      "stateMutability": "view",
      "type": "function"
    },
    {
      "inputs": [
        {
          "internalType": "uint256",
          "name": "requestId",
          "type": "uint256"
        },
        {
          "internalType": "uint256[]",
          "name": "randomWords",
          "type": "uint256[]"
        }
      ],
      "name": "rawFulfillRandomWords",
      "outputs": [],
      "stateMutability": "nonpayable",
      "type": "function"
    },
    {
      "inputs": [],
      "name": "renounceOwnership",
      "outputs": [],
      "stateMutability": "nonpayable",
      "type": "function"
    },
    {
      "inputs": [],
      "name": "requestNft",
      "outputs": [
        {
          "internalType": "uint256",
          "name": "requestId",
          "type": "uint256"
        }
      ],
      "stateMutability": "payable",
      "type": "function"
    },
    {
      "inputs": [],
      "name": "s_tokenCounter",
      "outputs": [
        {
          "internalType": "uint256",
          "name": "",
          "type": "uint256"
        }
      ],
      "stateMutability": "view",
      "type": "function"
    },
    {
      "inputs": [
        {
          "internalType": "address",
          "name": "from",
          "type": "address"
        },
        {
          "internalType": "address",
          "name": "to",
          "type": "address"
        },
        {
          "internalType": "uint256",
          "name": "tokenId",
          "type": "uint256"
        }
      ],
      "name": "safeTransferFrom",
      "outputs": [],
      "stateMutability": "nonpayable",
      "type": "function"
    },
    {
      "inputs": [
        {
          "internalType": "address",
          "name": "from",
          "type": "address"
        },
        {
          "internalType": "address",
          "name": "to",
          "type": "address"
        },
        {
          "internalType": "uint256",
          "name": "tokenId",
          "type": "uint256"
        },
        {
          "internalType": "bytes",
          "name": "data",
          "type": "bytes"
        }
      ],
      "name": "safeTransferFrom",
      "outputs": [],
      "stateMutability": "nonpayable",
      "type": "function"
    },
    {
      "inputs": [
        {
          "internalType": "address",
          "name": "operator",
          "type": "address"
        },
        {
          "internalType": "bool",
          "name": "approved",
          "type": "bool"
        }
      ],
      "name": "setApprovalForAll",
      "outputs": [],
      "stateMutability": "nonpayable",
      "type": "function"
    },
    {
      "inputs": [
        {
          "internalType": "bytes4",
          "name": "interfaceId",
          "type": "bytes4"
        }
      ],
      "name": "supportsInterface",
      "outputs": [
        {
          "internalType": "bool",
          "name": "",
          "type": "bool"
        }
      ],
      "stateMutability": "view",
      "type": "function"
    },
    {
      "inputs": [],
      "name": "symbol",
      "outputs": [
        {
          "internalType": "string",
          "name": "",
          "type": "string"
        }
      ],
      "stateMutability": "view",
      "type": "function"
    },
    {
      "inputs": [
        {
          "internalType": "uint256",
          "name": "tokenId",
          "type": "uint256"
        }
      ],
      "name": "tokenURI",
      "outputs": [
        {
          "internalType": "string",
          "name": "",
          "type": "string"
        }
      ],
      "stateMutability": "view",
      "type": "function"
    },
    {
      "inputs": [
        {
          "internalType": "address",
          "name": "from",
          "type": "address"
        },
        {
          "internalType": "address",
          "name": "to",
          "type": "address"
        },
        {
          "internalType": "uint256",
          "name": "tokenId",
          "type": "uint256"
        }
      ],
      "name": "transferFrom",
      "outputs": [],
      "stateMutability": "nonpayable",
      "type": "function"
    },
    {
      "inputs": [
        {
          "internalType": "address",
          "name": "newOwner",
          "type": "address"
        }
      ],
      "name": "transferOwnership",
      "outputs": [],
      "stateMutability": "nonpayable",
      "type": "function"
    },
    {
      "inputs": [],
      "name": "withdraw",
      "outputs": [],
      "stateMutability": "nonpayable",
      "type": "function"
    }
  ],
  "bytecode": "0x610160604052603c610140908152503480156200001b57600080fd5b50604051620047d1380380620047d18339818101604052810190620000419190620005e0565b6040518060400160405280600f81526020017f52616e646f6d2049504653204e465400000000000000000000000000000000008152506040518060400160405280600381526020017f52494e0000000000000000000000000000000000000000000000000000000000815250878073ffffffffffffffffffffffffffffffffffffffff1660808173ffffffffffffffffffffffffffffffffffffffff1660601b81525050508160009080519060200190620000fe929190620002a7565b50806001908051906020019062000117929190620002a7565b5050506200013a6200012e620001d960201b60201c565b620001e160201b60201c565b8573ffffffffffffffffffffffffffffffffffffffff1660a08173ffffffffffffffffffffffffffffffffffffffff1660601b815250508360e081815250508263ffffffff166101008163ffffffff1660e01b815250508467ffffffffffffffff1660c08167ffffffffffffffff1660c01b8152505081600a906003620001c392919062000338565b508061012081815250505050505050506200093b565b600033905090565b6000600760009054906101000a900473ffffffffffffffffffffffffffffffffffffffff16905081600760006101000a81548173ffffffffffffffffffffffffffffffffffffffff021916908373ffffffffffffffffffffffffffffffffffffffff1602179055508173ffffffffffffffffffffffffffffffffffffffff168173ffffffffffffffffffffffffffffffffffffffff167f8be0079c531659141344cd1fd0a4f28419497f9722a3daafe3b4186f6b6457e060405160405180910390a35050565b828054620002b590620007c5565b90600052602060002090601f016020900481019282620002d9576000855562000325565b82601f10620002f457805160ff191683800117855562000325565b8280016001018555821562000325579182015b828111156200032457825182559160200191906001019062000307565b5b5090506200033491906200039f565b5090565b8280548282559060005260206000209081019282156200038c579160200282015b828111156200038b5782518290805190602001906200037a929190620002a7565b509160200191906001019062000359565b5b5090506200039b9190620003be565b5090565b5b80821115620003ba576000816000905550600101620003a0565b5090565b5b80821115620003e25760008181620003d89190620003e6565b50600101620003bf565b5090565b508054620003f490620007c5565b6000825580601f1062000408575062000429565b601f0160209004906000526020600020908101906200042891906200039f565b5b50565b6000620004436200043d84620006c4565b6200069b565b9050808285602086028201111562000460576200045f62000894565b5b60005b85811015620004b557815167ffffffffffffffff8111156200048a57620004896200088f565b5b80860162000499898262000568565b8552602085019450602084019350505060018101905062000463565b5050509392505050565b6000620004d6620004d084620006ed565b6200069b565b905082815260208101848484011115620004f557620004f462000899565b5b620005028482856200078f565b509392505050565b6000815190506200051b81620008b9565b92915050565b600082601f8301126200053957620005386200088f565b5b6003620005488482856200042c565b91505092915050565b6000815190506200056281620008d3565b92915050565b600082601f83011262000580576200057f6200088f565b5b815162000592848260208601620004bf565b91505092915050565b600081519050620005ac81620008ed565b92915050565b600081519050620005c38162000907565b92915050565b600081519050620005da8162000921565b92915050565b60008060008060008060c087890312156200060057620005ff620008a3565b5b60006200061089828a016200050a565b96505060206200062389828a01620005c9565b95505060406200063689828a0162000551565b94505060606200064989828a01620005b2565b935050608087015167ffffffffffffffff8111156200066d576200066c6200089e565b5b6200067b89828a0162000521565b92505060a06200068e89828a016200059b565b9150509295509295509295565b6000620006a7620006ba565b9050620006b58282620007fb565b919050565b6000604051905090565b600067ffffffffffffffff821115620006e257620006e162000860565b5b602082029050919050565b600067ffffffffffffffff8211156200070b576200070a62000860565b5b6200071682620008a8565b9050602081019050919050565b6000620007308262000741565b9050919050565b6000819050919050565b600073ffffffffffffffffffffffffffffffffffffffff82169050919050565b6000819050919050565b600063ffffffff82169050919050565b600067ffffffffffffffff82169050919050565b60005b83811015620007af57808201518184015260208101905062000792565b83811115620007bf576000848401525b50505050565b60006002820490506001821680620007de57607f821691505b60208210811415620007f557620007f462000831565b5b50919050565b6200080682620008a8565b810181811067ffffffffffffffff8211171562000828576200082762000860565b5b80604052505050565b7f4e487b7100000000000000000000000000000000000000000000000000000000600052602260045260246000fd5b7f4e487b7100000000000000000000000000000000000000000000000000000000600052604160045260246000fd5b600080fd5b600080fd5b600080fd5b600080fd5b600080fd5b6000601f19601f8301169050919050565b620008c48162000723565b8114620008d057600080fd5b50565b620008de8162000737565b8114620008ea57600080fd5b50565b620008f88162000761565b81146200090457600080fd5b50565b62000912816200076b565b81146200091e57600080fd5b50565b6200092c816200077b565b81146200093857600080fd5b50565b60805160601c60a05160601c60c05160c01c60e0516101005160e01c6101205161014051613e05620009cc60003960008181610ca40152611713015260008181610e2c015261104501526000818161111f01526114140152600081816110db01526112a70152600081816110fc01526113e20152600061109f0152600081816109df0152610a330152613e056000f3fe6080604052600436106101c25760003560e01c8063715018a6116100f7578063aa15249111610095578063de3d9fb711610064578063de3d9fb714610649578063de8be8e714610674578063e985e9c51461069f578063f2fde38b146106dc576101c2565b8063aa1524911461059a578063b88d4fde146105b8578063c19dd76b146105e1578063c87b56dd1461060c576101c2565b80638da5cb5b116100d15780638da5cb5b146104de57806395d89b4114610509578063a22cb46514610534578063a51cccf31461055d576101c2565b8063715018a61461045f5780637a5caab31461047657806383762616146104a1576101c2565b80633af25975116101645780635dacf5f41161013e5780635dacf5f41461038f5780636352211e146103ba5780636e02007d146103f757806370a0823114610422576101c2565b80633af25975146103125780633ccfd60b1461034f57806342842e0e14610366576101c2565b8063095ea7b3116101a0578063095ea7b31461026c5780630b21a83b146102955780631fe543e3146102c057806323b872dd146102e9576101c2565b806301ffc9a7146101c757806306fdde0314610204578063081812fc1461022f575b600080fd5b3480156101d357600080fd5b506101ee60048036038101906101e99190612c8a565b610705565b6040516101fb9190613224565b60405180910390f35b34801561021057600080fd5b506102196107e7565b60405161022691906132f1565b60405180910390f35b34801561023b57600080fd5b5061025660048036038101906102519190612ce4565b610879565b6040516102639190613179565b60405180910390f35b34801561027857600080fd5b50610293600480360381019061028e9190612c4a565b6108bf565b005b3480156102a157600080fd5b506102aa6109d7565b6040516102b791906134d3565b60405180910390f35b3480156102cc57600080fd5b506102e760048036038101906102e29190612d3e565b6109dd565b005b3480156102f557600080fd5b50610310600480360381019061030b9190612b34565b610a9d565b005b34801561031e57600080fd5b5061033960048036038101906103349190612ce4565b610afd565b60405161034691906132f1565b60405180910390f35b34801561035b57600080fd5b50610364610bad565b005b34801561037257600080fd5b5061038d60048036038101906103889190612b34565b610c61565b005b34801561039b57600080fd5b506103a4610c81565b6040516103b19190613209565b60405180910390f35b3480156103c657600080fd5b506103e160048036038101906103dc9190612ce4565b610ccb565b6040516103ee9190613179565b60405180910390f35b34801561040357600080fd5b5061040c610d52565b60405161041991906134d3565b60405180910390f35b34801561042e57600080fd5b5061044960048036038101906104449190612ac7565b610d5c565b60405161045691906134d3565b60405180910390f35b34801561046b57600080fd5b50610474610e14565b005b34801561048257600080fd5b5061048b610e28565b60405161049891906134d3565b60405180910390f35b3480156104ad57600080fd5b506104c860048036038101906104c39190612ce4565b610e50565b6040516104d59190613179565b60405180910390f35b3480156104ea57600080fd5b506104f3610e8d565b6040516105009190613179565b60405180910390f35b34801561051557600080fd5b5061051e610eb7565b60405161052b91906132f1565b60405180910390f35b34801561054057600080fd5b5061055b60048036038101906105569190612c0a565b610f49565b005b34801561056957600080fd5b50610584600480360381019061057f9190612ce4565b610f5f565b60405161059191906132ad565b60405180910390f35b6105a2611041565b6040516105af91906134d3565b60405180910390f35b3480156105c457600080fd5b506105df60048036038101906105da9190612b87565b611241565b005b3480156105ed57600080fd5b506105f66112a3565b604051610603919061323f565b60405180910390f35b34801561061857600080fd5b50610633600480360381019061062e9190612ce4565b6112cb565b60405161064091906132f1565b60405180910390f35b34801561065557600080fd5b5061065e6113de565b60405161066b91906134d3565b60405180910390f35b34801561068057600080fd5b50610689611410565b60405161069691906134ee565b60405180910390f35b3480156106ab57600080fd5b506106c660048036038101906106c19190612af4565b611438565b6040516106d39190613224565b60405180910390f35b3480156106e857600080fd5b5061070360048036038101906106fe9190612ac7565b6114cc565b005b60007f80ac58cd000000000000000000000000000000000000000000000000000000007bffffffffffffffffffffffffffffffffffffffffffffffffffffffff1916827bffffffffffffffffffffffffffffffffffffffffffffffffffffffff191614806107d057507f5b5e139f000000000000000000000000000000000000000000000000000000007bffffffffffffffffffffffffffffffffffffffffffffffffffffffff1916827bffffffffffffffffffffffffffffffffffffffffffffffffffffffff1916145b806107e057506107df82611550565b5b9050919050565b6060600080546107f6906137a7565b80601f0160208091040260200160405190810160405280929190818152602001828054610822906137a7565b801561086f5780601f106108445761010080835404028352916020019161086f565b820191906000526020600020905b81548152906001019060200180831161085257829003601f168201915b5050505050905090565b6000610884826115ba565b6004600083815260200190815260200160002060009054906101000a900473ffffffffffffffffffffffffffffffffffffffff169050919050565b60006108ca82610ccb565b90508073ffffffffffffffffffffffffffffffffffffffff168373ffffffffffffffffffffffffffffffffffffffff16141561093b576040517f08c379a000000000000000000000000000000000000000000000000000000000815260040161093290613493565b60405180910390fd5b8073ffffffffffffffffffffffffffffffffffffffff1661095a611605565b73ffffffffffffffffffffffffffffffffffffffff161480610989575061098881610983611605565b611438565b5b6109c8576040517f08c379a00000000000000000000000000000000000000000000000000000000081526004016109bf906134b3565b60405180910390fd5b6109d2838361160d565b505050565b60095481565b7f000000000000000000000000000000000000000000000000000000000000000073ffffffffffffffffffffffffffffffffffffffff163373ffffffffffffffffffffffffffffffffffffffff1614610a8f57337f00000000000000000000000000000000000000000000000000000000000000006040517f1cf993f4000000000000000000000000000000000000000000000000000000008152600401610a86929190613194565b60405180910390fd5b610a9982826116c6565b5050565b610aae610aa8611605565b826118c1565b610aed576040517f08c379a0000000000000000000000000000000000000000000000000000000008152600401610ae490613313565b60405180910390fd5b610af8838383611956565b505050565b6060600a8281548110610b1357610b12613940565b5b906000526020600020018054610b28906137a7565b80601f0160208091040260200160405190810160405280929190818152602001828054610b54906137a7565b8015610ba15780601f10610b7657610100808354040283529160200191610ba1565b820191906000526020600020905b815481529060010190602001808311610b8457829003601f168201915b50505050509050919050565b610bb5611c50565b600047905060003373ffffffffffffffffffffffffffffffffffffffff1682604051610be090613164565b60006040518083038185875af1925050503d8060008114610c1d576040519150601f19603f3d011682016040523d82523d6000602084013e610c22565b606091505b5050905080610c5d576040517f2b55cce700000000000000000000000000000000000000000000000000000000815260040160405180910390fd5b5050565b610c7c83838360405180602001604052806000815250611241565b505050565b610c89612876565b6040518060600160405280600a8152602001601e81526020017f0000000000000000000000000000000000000000000000000000000000000000815250905090565b600080610cd783611cce565b9050600073ffffffffffffffffffffffffffffffffffffffff168173ffffffffffffffffffffffffffffffffffffffff161415610d49576040517f08c379a0000000000000000000000000000000000000000000000000000000008152600401610d4090613473565b60405180910390fd5b80915050919050565b6000600954905090565b60008073ffffffffffffffffffffffffffffffffffffffff168273ffffffffffffffffffffffffffffffffffffffff161415610dcd576040517f08c379a0000000000000000000000000000000000000000000000000000000008152600401610dc4906133f3565b60405180910390fd5b600360008373ffffffffffffffffffffffffffffffffffffffff1673ffffffffffffffffffffffffffffffffffffffff168152602001908152602001600020549050919050565b610e1c611c50565b610e266000611d0b565b565b60007f0000000000000000000000000000000000000000000000000000000000000000905090565b60006008600083815260200190815260200160002060009054906101000a900473ffffffffffffffffffffffffffffffffffffffff169050919050565b6000600760009054906101000a900473ffffffffffffffffffffffffffffffffffffffff16905090565b606060018054610ec6906137a7565b80601f0160208091040260200160405190810160405280929190818152602001828054610ef2906137a7565b8015610f3f5780601f10610f1457610100808354040283529160200191610f3f565b820191906000526020600020905b815481529060010190602001808311610f2257829003601f168201915b5050505050905090565b610f5b610f54611605565b8383611dd1565b5050565b600080600090506000610f70610c81565b905060005b600381101561100957828510158015610faf5750818160038110610f9c57610f9b613940565b5b602002015183610fac9190613606565b85105b15610fd157806002811115610fc757610fc66138e2565b5b935050505061103c565b818160038110610fe457610fe3613940565b5b602002015183610ff49190613606565b925080806110019061380a565b915050610f75565b506040517f12806c9d00000000000000000000000000000000000000000000000000000000815260040160405180910390fd5b919050565b60007f000000000000000000000000000000000000000000000000000000000000000034101561109d576040517fb90f491000000000000000000000000000000000000000000000000000000000815260040160405180910390fd5b7f000000000000000000000000000000000000000000000000000000000000000073ffffffffffffffffffffffffffffffffffffffff16635d3b1d307f00000000000000000000000000000000000000000000000000000000000000007f000000000000000000000000000000000000000000000000000000000000000060017f000000000000000000000000000000000000000000000000000000000000000060016040518663ffffffff1660e01b815260040161116095949392919061325a565b602060405180830381600087803b15801561117a57600080fd5b505af115801561118e573d6000803e3d6000fd5b505050506040513d601f19601f820116820180604052508101906111b29190612d11565b9050336008600083815260200190815260200160002060006101000a81548173ffffffffffffffffffffffffffffffffffffffff021916908373ffffffffffffffffffffffffffffffffffffffff160217905550807ff873236e6cc0ecc5be1a9a35c95ee5b8d1ac4cc7bfef0cc5060391d6cc98e26b336040516112369190613179565b60405180910390a290565b61125261124c611605565b836118c1565b611291576040517f08c379a000000000000000000000000000000000000000000000000000000000815260040161128890613313565b60405180910390fd5b61129d84848484611f3e565b50505050565b60007f0000000000000000000000000000000000000000000000000000000000000000905090565b60606112d6826115ba565b60006006600084815260200190815260200160002080546112f6906137a7565b80601f0160208091040260200160405190810160405280929190818152602001828054611322906137a7565b801561136f5780601f106113445761010080835404028352916020019161136f565b820191906000526020600020905b81548152906001019060200180831161135257829003601f168201915b505050505090506000611380611f9a565b90506000815114156113965781925050506113d9565b6000825111156113cb5780826040516020016113b3929190613140565b604051602081830303815290604052925050506113d9565b6113d484611fb1565b925050505b919050565b60007f000000000000000000000000000000000000000000000000000000000000000067ffffffffffffffff16905090565b60007f0000000000000000000000000000000000000000000000000000000000000000905090565b6000600560008473ffffffffffffffffffffffffffffffffffffffff1673ffffffffffffffffffffffffffffffffffffffff16815260200190815260200160002060008373ffffffffffffffffffffffffffffffffffffffff1673ffffffffffffffffffffffffffffffffffffffff16815260200190815260200160002060009054906101000a900460ff16905092915050565b6114d4611c50565b600073ffffffffffffffffffffffffffffffffffffffff168173ffffffffffffffffffffffffffffffffffffffff161415611544576040517f08c379a000000000000000000000000000000000000000000000000000000000815260040161153b90613353565b60405180910390fd5b61154d81611d0b565b50565b60007f01ffc9a7000000000000000000000000000000000000000000000000000000007bffffffffffffffffffffffffffffffffffffffffffffffffffffffff1916827bffffffffffffffffffffffffffffffffffffffffffffffffffffffff1916149050919050565b6115c381612019565b611602576040517f08c379a00000000000000000000000000000000000000000000000000000000081526004016115f990613473565b60405180910390fd5b50565b600033905090565b816004600083815260200190815260200160002060006101000a81548173ffffffffffffffffffffffffffffffffffffffff021916908373ffffffffffffffffffffffffffffffffffffffff160217905550808273ffffffffffffffffffffffffffffffffffffffff1661168083610ccb565b73ffffffffffffffffffffffffffffffffffffffff167f8c5be1e5ebec7d5bd14f71427d1e84f3dd0314c0f7b2291e5b200ac8c7c3b92560405160405180910390a45050565b60006008600084815260200190815260200160002060009054906101000a900473ffffffffffffffffffffffffffffffffffffffff1690506000600954905061170f828261205a565b60007f00000000000000000000000000000000000000000000000000000000000000008460008151811061174657611745613940565b5b60200260200101516117589190613853565b9050600061176582610f5f565b905060016009600082825461177a9190613606565b925050819055506117be6008600088815260200190815260200160002060009054906101000a900473ffffffffffffffffffffffffffffffffffffffff168461205a565b61188083600a8360028111156117d7576117d66138e2565b5b815481106117e8576117e7613940565b5b9060005260206000200180546117fd906137a7565b80601f0160208091040260200160405190810160405280929190818152602001828054611829906137a7565b80156118765780601f1061184b57610100808354040283529160200191611876565b820191906000526020600020905b81548152906001019060200180831161185957829003601f168201915b5050505050612078565b7f8a269f26b688e110e9cbd887d163dab35cae678fa353a0292de532c0cac1ecdc81856040516118b19291906132c8565b60405180910390a1505050505050565b6000806118cd83610ccb565b90508073ffffffffffffffffffffffffffffffffffffffff168473ffffffffffffffffffffffffffffffffffffffff16148061190f575061190e8185611438565b5b8061194d57508373ffffffffffffffffffffffffffffffffffffffff1661193584610879565b73ffffffffffffffffffffffffffffffffffffffff16145b91505092915050565b8273ffffffffffffffffffffffffffffffffffffffff1661197682610ccb565b73ffffffffffffffffffffffffffffffffffffffff16146119cc576040517f08c379a00000000000000000000000000000000000000000000000000000000081526004016119c390613373565b60405180910390fd5b600073ffffffffffffffffffffffffffffffffffffffff168273ffffffffffffffffffffffffffffffffffffffff161415611a3c576040517f08c379a0000000000000000000000000000000000000000000000000000000008152600401611a33906133b3565b60405180910390fd5b611a4983838360016120ec565b8273ffffffffffffffffffffffffffffffffffffffff16611a6982610ccb565b73ffffffffffffffffffffffffffffffffffffffff1614611abf576040517f08c379a0000000000000000000000000000000000000000000000000000000008152600401611ab690613373565b60405180910390fd5b6004600082815260200190815260200160002060006101000a81549073ffffffffffffffffffffffffffffffffffffffff02191690556001600360008573ffffffffffffffffffffffffffffffffffffffff1673ffffffffffffffffffffffffffffffffffffffff168152602001908152602001600020600082825403925050819055506001600360008473ffffffffffffffffffffffffffffffffffffffff1673ffffffffffffffffffffffffffffffffffffffff16815260200190815260200160002060008282540192505081905550816002600083815260200190815260200160002060006101000a81548173ffffffffffffffffffffffffffffffffffffffff021916908373ffffffffffffffffffffffffffffffffffffffff160217905550808273ffffffffffffffffffffffffffffffffffffffff168473ffffffffffffffffffffffffffffffffffffffff167fddf252ad1be2c89b69c2b068fc378daa952ba7f163c4a11628f55a4df523b3ef60405160405180910390a4611c4b8383836001612212565b505050565b611c58611605565b73ffffffffffffffffffffffffffffffffffffffff16611c76610e8d565b73ffffffffffffffffffffffffffffffffffffffff1614611ccc576040517f08c379a0000000000000000000000000000000000000000000000000000000008152600401611cc390613453565b60405180910390fd5b565b60006002600083815260200190815260200160002060009054906101000a900473ffffffffffffffffffffffffffffffffffffffff169050919050565b6000600760009054906101000a900473ffffffffffffffffffffffffffffffffffffffff16905081600760006101000a81548173ffffffffffffffffffffffffffffffffffffffff021916908373ffffffffffffffffffffffffffffffffffffffff1602179055508173ffffffffffffffffffffffffffffffffffffffff168173ffffffffffffffffffffffffffffffffffffffff167f8be0079c531659141344cd1fd0a4f28419497f9722a3daafe3b4186f6b6457e060405160405180910390a35050565b8173ffffffffffffffffffffffffffffffffffffffff168373ffffffffffffffffffffffffffffffffffffffff161415611e40576040517f08c379a0000000000000000000000000000000000000000000000000000000008152600401611e37906133d3565b60405180910390fd5b80600560008573ffffffffffffffffffffffffffffffffffffffff1673ffffffffffffffffffffffffffffffffffffffff16815260200190815260200160002060008473ffffffffffffffffffffffffffffffffffffffff1673ffffffffffffffffffffffffffffffffffffffff16815260200190815260200160002060006101000a81548160ff0219169083151502179055508173ffffffffffffffffffffffffffffffffffffffff168373ffffffffffffffffffffffffffffffffffffffff167f17307eab39ab6107e8899845ad3d59bd9653f200f220920489ca2b5937696c3183604051611f319190613224565b60405180910390a3505050565b611f49848484611956565b611f5584848484612218565b611f94576040517f08c379a0000000000000000000000000000000000000000000000000000000008152600401611f8b90613333565b60405180910390fd5b50505050565b606060405180602001604052806000815250905090565b6060611fbc826115ba565b6000611fc6611f9a565b90506000815111611fe65760405180602001604052806000815250612011565b80611ff0846123af565b604051602001612001929190613140565b6040516020818303038152906040525b915050919050565b60008073ffffffffffffffffffffffffffffffffffffffff1661203b83611cce565b73ffffffffffffffffffffffffffffffffffffffff1614159050919050565b612074828260405180602001604052806000815250612487565b5050565b61208182612019565b6120c0576040517f08c379a00000000000000000000000000000000000000000000000000000000081526004016120b790613413565b60405180910390fd5b806006600084815260200190815260200160002090805190602001906120e7929190612898565b505050565b600181111561220c57600073ffffffffffffffffffffffffffffffffffffffff168473ffffffffffffffffffffffffffffffffffffffff16146121805780600360008673ffffffffffffffffffffffffffffffffffffffff1673ffffffffffffffffffffffffffffffffffffffff1681526020019081526020016000206000828254612178919061365c565b925050819055505b600073ffffffffffffffffffffffffffffffffffffffff168373ffffffffffffffffffffffffffffffffffffffff161461220b5780600360008573ffffffffffffffffffffffffffffffffffffffff1673ffffffffffffffffffffffffffffffffffffffff16815260200190815260200160002060008282546122039190613606565b925050819055505b5b50505050565b50505050565b60006122398473ffffffffffffffffffffffffffffffffffffffff166124e2565b156123a2578373ffffffffffffffffffffffffffffffffffffffff1663150b7a02612262611605565b8786866040518563ffffffff1660e01b815260040161228494939291906131bd565b602060405180830381600087803b15801561229e57600080fd5b505af19250505080156122cf57506040513d601f19601f820116820180604052508101906122cc9190612cb7565b60015b612352573d80600081146122ff576040519150601f19603f3d011682016040523d82523d6000602084013e612304565b606091505b5060008151141561234a576040517f08c379a000000000000000000000000000000000000000000000000000000000815260040161234190613333565b60405180910390fd5b805181602001fd5b63150b7a0260e01b7bffffffffffffffffffffffffffffffffffffffffffffffffffffffff1916817bffffffffffffffffffffffffffffffffffffffffffffffffffffffff1916149150506123a7565b600190505b949350505050565b6060600060016123be84612505565b01905060008167ffffffffffffffff8111156123dd576123dc61396f565b5b6040519080825280601f01601f19166020018201604052801561240f5781602001600182028036833780820191505090505b509050600082602001820190505b60011561247c578080600190039150507f3031323334353637383961626364656600000000000000000000000000000000600a86061a8153600a8581612466576124656138b3565b5b04945060008514156124775761247c565b61241d565b819350505050919050565b6124918383612658565b61249e6000848484612218565b6124dd576040517f08c379a00000000000000000000000000000000000000000000000000000000081526004016124d490613333565b60405180910390fd5b505050565b6000808273ffffffffffffffffffffffffffffffffffffffff163b119050919050565b600080600090507a184f03e93ff9f4daa797ed6e38ed64bf6a1f0100000000000000008310612563577a184f03e93ff9f4daa797ed6e38ed64bf6a1f0100000000000000008381612559576125586138b3565b5b0492506040810190505b6d04ee2d6d415b85acef810000000083106125a0576d04ee2d6d415b85acef81000000008381612596576125956138b3565b5b0492506020810190505b662386f26fc1000083106125cf57662386f26fc1000083816125c5576125c46138b3565b5b0492506010810190505b6305f5e10083106125f8576305f5e10083816125ee576125ed6138b3565b5b0492506008810190505b612710831061261d576127108381612613576126126138b3565b5b0492506004810190505b606483106126405760648381612636576126356138b3565b5b0492506002810190505b600a831061264f576001810190505b80915050919050565b600073ffffffffffffffffffffffffffffffffffffffff168273ffffffffffffffffffffffffffffffffffffffff1614156126c8576040517f08c379a00000000000000000000000000000000000000000000000000000000081526004016126bf90613433565b60405180910390fd5b6126d181612019565b15612711576040517f08c379a000000000000000000000000000000000000000000000000000000000815260040161270890613393565b60405180910390fd5b61271f6000838360016120ec565b61272881612019565b15612768576040517f08c379a000000000000000000000000000000000000000000000000000000000815260040161275f90613393565b60405180910390fd5b6001600360008473ffffffffffffffffffffffffffffffffffffffff1673ffffffffffffffffffffffffffffffffffffffff16815260200190815260200160002060008282540192505081905550816002600083815260200190815260200160002060006101000a81548173ffffffffffffffffffffffffffffffffffffffff021916908373ffffffffffffffffffffffffffffffffffffffff160217905550808273ffffffffffffffffffffffffffffffffffffffff16600073ffffffffffffffffffffffffffffffffffffffff167fddf252ad1be2c89b69c2b068fc378daa952ba7f163c4a11628f55a4df523b3ef60405160405180910390a4612872600083836001612212565b5050565b6040518060600160405280600390602082028036833780820191505090505090565b8280546128a4906137a7565b90600052602060002090601f0160209004810192826128c6576000855561290d565b82601f106128df57805160ff191683800117855561290d565b8280016001018555821561290d579182015b8281111561290c5782518255916020019190600101906128f1565b5b50905061291a919061291e565b5090565b5b8082111561293757600081600090555060010161291f565b5090565b600061294e6129498461352e565b613509565b90508083825260208201905082856020860282011115612971576129706139a3565b5b60005b858110156129a157816129878882612a9d565b845260208401935060208301925050600181019050612974565b5050509392505050565b60006129be6129b98461355a565b613509565b9050828152602081018484840111156129da576129d96139a8565b5b6129e5848285613765565b509392505050565b6000813590506129fc81613d73565b92915050565b600082601f830112612a1757612a1661399e565b5b8135612a2784826020860161293b565b91505092915050565b600081359050612a3f81613d8a565b92915050565b600081359050612a5481613da1565b92915050565b600081519050612a6981613da1565b92915050565b600082601f830112612a8457612a8361399e565b5b8135612a948482602086016129ab565b91505092915050565b600081359050612aac81613db8565b92915050565b600081519050612ac181613db8565b92915050565b600060208284031215612add57612adc6139b2565b5b6000612aeb848285016129ed565b91505092915050565b60008060408385031215612b0b57612b0a6139b2565b5b6000612b19858286016129ed565b9250506020612b2a858286016129ed565b9150509250929050565b600080600060608486031215612b4d57612b4c6139b2565b5b6000612b5b868287016129ed565b9350506020612b6c868287016129ed565b9250506040612b7d86828701612a9d565b9150509250925092565b60008060008060808587031215612ba157612ba06139b2565b5b6000612baf878288016129ed565b9450506020612bc0878288016129ed565b9350506040612bd187828801612a9d565b925050606085013567ffffffffffffffff811115612bf257612bf16139ad565b5b612bfe87828801612a6f565b91505092959194509250565b60008060408385031215612c2157612c206139b2565b5b6000612c2f858286016129ed565b9250506020612c4085828601612a30565b9150509250929050565b60008060408385031215612c6157612c606139b2565b5b6000612c6f858286016129ed565b9250506020612c8085828601612a9d565b9150509250929050565b600060208284031215612ca057612c9f6139b2565b5b6000612cae84828501612a45565b91505092915050565b600060208284031215612ccd57612ccc6139b2565b5b6000612cdb84828501612a5a565b91505092915050565b600060208284031215612cfa57612cf96139b2565b5b6000612d0884828501612a9d565b91505092915050565b600060208284031215612d2757612d266139b2565b5b6000612d3584828501612ab2565b91505092915050565b60008060408385031215612d5557612d546139b2565b5b6000612d6385828601612a9d565b925050602083013567ffffffffffffffff811115612d8457612d836139ad565b5b612d9085828601612a02565b9150509250929050565b6000612da68383613104565b60208301905092915050565b612dbb81613690565b82525050565b612dca81613595565b612dd481846135c3565b9250612ddf8261358b565b8060005b83811015612e10578151612df78782612d9a565b9650612e02836135b6565b925050600181019050612de3565b505050505050565b612e21816136a2565b82525050565b612e30816136ae565b82525050565b6000612e41826135a0565b612e4b81856135ce565b9350612e5b818560208601613774565b612e64816139b7565b840191505092915050565b612e7881613753565b82525050565b6000612e89826135ab565b612e9381856135ea565b9350612ea3818560208601613774565b612eac816139b7565b840191505092915050565b6000612ec2826135ab565b612ecc81856135fb565b9350612edc818560208601613774565b80840191505092915050565b6000612ef5602d836135ea565b9150612f00826139c8565b604082019050919050565b6000612f186032836135ea565b9150612f2382613a17565b604082019050919050565b6000612f3b6026836135ea565b9150612f4682613a66565b604082019050919050565b6000612f5e6025836135ea565b9150612f6982613ab5565b604082019050919050565b6000612f81601c836135ea565b9150612f8c82613b04565b602082019050919050565b6000612fa46024836135ea565b9150612faf82613b2d565b604082019050919050565b6000612fc76019836135ea565b9150612fd282613b7c565b602082019050919050565b6000612fea6029836135ea565b9150612ff582613ba5565b604082019050919050565b600061300d602e836135ea565b915061301882613bf4565b604082019050919050565b60006130306020836135ea565b915061303b82613c43565b602082019050919050565b60006130536020836135ea565b915061305e82613c6c565b602082019050919050565b60006130766018836135ea565b915061308182613c95565b602082019050919050565b60006130996021836135ea565b91506130a482613cbe565b604082019050919050565b60006130bc6000836135df565b91506130c782613d0d565b600082019050919050565b60006130df603d836135ea565b91506130ea82613d10565b604082019050919050565b6130fe816136f7565b82525050565b61310d81613725565b82525050565b61311c81613725565b82525050565b61312b8161372f565b82525050565b61313a8161373f565b82525050565b600061314c8285612eb7565b91506131588284612eb7565b91508190509392505050565b600061316f826130af565b9150819050919050565b600060208201905061318e6000830184612db2565b92915050565b60006040820190506131a96000830185612db2565b6131b66020830184612db2565b9392505050565b60006080820190506131d26000830187612db2565b6131df6020830186612db2565b6131ec6040830185613113565b81810360608301526131fe8184612e36565b905095945050505050565b600060608201905061321e6000830184612dc1565b92915050565b60006020820190506132396000830184612e18565b92915050565b60006020820190506132546000830184612e27565b92915050565b600060a08201905061326f6000830188612e27565b61327c6020830187613131565b61328960408301866130f5565b6132966060830185613122565b6132a36080830184613122565b9695505050505050565b60006020820190506132c26000830184612e6f565b92915050565b60006040820190506132dd6000830185612e6f565b6132ea6020830184612db2565b9392505050565b6000602082019050818103600083015261330b8184612e7e565b905092915050565b6000602082019050818103600083015261332c81612ee8565b9050919050565b6000602082019050818103600083015261334c81612f0b565b9050919050565b6000602082019050818103600083015261336c81612f2e565b9050919050565b6000602082019050818103600083015261338c81612f51565b9050919050565b600060208201905081810360008301526133ac81612f74565b9050919050565b600060208201905081810360008301526133cc81612f97565b9050919050565b600060208201905081810360008301526133ec81612fba565b9050919050565b6000602082019050818103600083015261340c81612fdd565b9050919050565b6000602082019050818103600083015261342c81613000565b9050919050565b6000602082019050818103600083015261344c81613023565b9050919050565b6000602082019050818103600083015261346c81613046565b9050919050565b6000602082019050818103600083015261348c81613069565b9050919050565b600060208201905081810360008301526134ac8161308c565b9050919050565b600060208201905081810360008301526134cc816130d2565b9050919050565b60006020820190506134e86000830184613113565b92915050565b60006020820190506135036000830184613122565b92915050565b6000613513613524565b905061351f82826137d9565b919050565b6000604051905090565b600067ffffffffffffffff8211156135495761354861396f565b5b602082029050602081019050919050565b600067ffffffffffffffff8211156135755761357461396f565b5b61357e826139b7565b9050602081019050919050565b6000819050919050565b600060039050919050565b600081519050919050565b600081519050919050565b6000602082019050919050565b600081905092915050565b600082825260208201905092915050565b600081905092915050565b600082825260208201905092915050565b600081905092915050565b600061361182613725565b915061361c83613725565b9250827fffffffffffffffffffffffffffffffffffffffffffffffffffffffffffffffff0382111561365157613650613884565b5b828201905092915050565b600061366782613725565b915061367283613725565b92508282101561368557613684613884565b5b828203905092915050565b600061369b82613705565b9050919050565b60008115159050919050565b6000819050919050565b60007fffffffff0000000000000000000000000000000000000000000000000000000082169050919050565b60008190506136f282613d5f565b919050565b600061ffff82169050919050565b600073ffffffffffffffffffffffffffffffffffffffff82169050919050565b6000819050919050565b600063ffffffff82169050919050565b600067ffffffffffffffff82169050919050565b600061375e826136e4565b9050919050565b82818337600083830152505050565b60005b83811015613792578082015181840152602081019050613777565b838111156137a1576000848401525b50505050565b600060028204905060018216806137bf57607f821691505b602082108114156137d3576137d2613911565b5b50919050565b6137e2826139b7565b810181811067ffffffffffffffff821117156138015761380061396f565b5b80604052505050565b600061381582613725565b91507fffffffffffffffffffffffffffffffffffffffffffffffffffffffffffffffff82141561384857613847613884565b5b600182019050919050565b600061385e82613725565b915061386983613725565b925082613879576138786138b3565b5b828206905092915050565b7f4e487b7100000000000000000000000000000000000000000000000000000000600052601160045260246000fd5b7f4e487b7100000000000000000000000000000000000000000000000000000000600052601260045260246000fd5b7f4e487b7100000000000000000000000000000000000000000000000000000000600052602160045260246000fd5b7f4e487b7100000000000000000000000000000000000000000000000000000000600052602260045260246000fd5b7f4e487b7100000000000000000000000000000000000000000000000000000000600052603260045260246000fd5b7f4e487b7100000000000000000000000000000000000000000000000000000000600052604160045260246000fd5b600080fd5b600080fd5b600080fd5b600080fd5b600080fd5b6000601f19601f8301169050919050565b7f4552433732313a2063616c6c6572206973206e6f7420746f6b656e206f776e6560008201527f72206f7220617070726f76656400000000000000000000000000000000000000602082015250565b7f4552433732313a207472616e7366657220746f206e6f6e20455243373231526560008201527f63656976657220696d706c656d656e7465720000000000000000000000000000602082015250565b7f4f776e61626c653a206e6577206f776e657220697320746865207a65726f206160008201527f6464726573730000000000000000000000000000000000000000000000000000602082015250565b7f4552433732313a207472616e736665722066726f6d20696e636f72726563742060008201527f6f776e6572000000000000000000000000000000000000000000000000000000602082015250565b7f4552433732313a20746f6b656e20616c7265616479206d696e74656400000000600082015250565b7f4552433732313a207472616e7366657220746f20746865207a65726f2061646460008201527f7265737300000000000000000000000000000000000000000000000000000000602082015250565b7f4552433732313a20617070726f766520746f2063616c6c657200000000000000600082015250565b7f4552433732313a2061646472657373207a65726f206973206e6f74206120766160008201527f6c6964206f776e65720000000000000000000000000000000000000000000000602082015250565b7f45524337323155524953746f726167653a2055524920736574206f66206e6f6e60008201527f6578697374656e7420746f6b656e000000000000000000000000000000000000602082015250565b7f4552433732313a206d696e7420746f20746865207a65726f2061646472657373600082015250565b7f4f776e61626c653a2063616c6c6572206973206e6f7420746865206f776e6572600082015250565b7f4552433732313a20696e76616c696420746f6b656e2049440000000000000000600082015250565b7f4552433732313a20617070726f76616c20746f2063757272656e74206f776e6560008201527f7200000000000000000000000000000000000000000000000000000000000000602082015250565b50565b7f4552433732313a20617070726f76652063616c6c6572206973206e6f7420746f60008201527f6b656e206f776e6572206f7220617070726f76656420666f7220616c6c000000602082015250565b60038110613d7057613d6f6138e2565b5b50565b613d7c81613690565b8114613d8757600080fd5b50565b613d93816136a2565b8114613d9e57600080fd5b50565b613daa816136b8565b8114613db557600080fd5b50565b613dc181613725565b8114613dcc57600080fd5b5056fea26469706673582212202670ddd3a2c66f6c4ede94b810c4624ff3da986469ef5d038ce91c4fdc7a849964736f6c63430008070033",
  "linkReferences": {},
  "deployedLinkReferences": {}
}